:020000040800F2
:10000000400B0020A10100084F110008450E000818
:100010004D110008D5020008191200080000000068
:100020000000000000000000000000007111000846
:10003000D7020008000000005111000873110008E9
:10004000BB010008BB010008BB010008BB010008A0
:10005000BB010008BB010008BB010008BB01000890
:10006000BB010008BB010008BB010008BB01000880
:10007000BB010008BB010008BB010008BB01000870
:10008000BB010008BB010008BB010008BB01000860
:10009000BB010008BB010008BB010008BB01000850
:1000A000BB010008BB010008BB010008BB01000840
:1000B000BB010008BB010008BB010008BB01000830
:1000C000BB010008BB010008BB010008BB01000820
:1000D000BB010008BB010008BB010008BB01000810
:1000E000BB010008BB010008BB010008BB01000800
:1000F000BB010008BB010008BB010008BB010008F0
:10010000BB010008BB010008BB010008BB010008DF
:10011000BB010008BB010008BB010008BB010008CF
:10012000BB010008BB010008BB010008BB010008BF
:10013000BB010008BB010008BB010008BB010008AF
:10014000BB010008BB010008BB010008BB0100089F
:10015000BB010008BB010008BB010008BB0100088F
:10016000BB010008BB010008BB010008BB0100087F
:10017000BB010008BB010008BB0100080000000033
:10018000BB010008BB010008DFF810D000F090F8B8
:100190000048004729140008AFF30080400B0020FE
:1001A0000648804706480047FEE7FEE7FEE7FEE711
:1001B000FEE7FEE7FEE7FEE7FEE7FEE7FD110008CB
:1001C000890100082DE9F05F0546002092469B4614
:1001D00088460646814640241BE02846414647465D
:1001E000224600F054F853465A46C01A914110D3A3
:1001F00011461846224600F03BF82D1A67EB01081D
:100200004F4622460120002100F032F817EB00098A
:100210004E41201EA4F10104DFDC484631462A4647
:100220004346BDE8F09F00000649074A086850436E
:1002300043F23902104408604008704701490860E1
:1002400070470000440000206D4EC641D2B201E06C
:1002500000F8012B491EFBD270470022F6E710B5CB
:1002600013460A4604461946FFF7F0FF204610BD24
:10027000202A04DB203A00FA02F100207047914066
:10028000C2F1200320FA03F3194390407047202A5B
:1002900004DB203A21FA02F00021704721FA02F330
:1002A000D040C2F120029140084319467047000037
:1002B000064C074D06E0E06840F0010394E80700B3
:1002C00098471034AC42F6D3FFF762FFC826000807
:1002D000E8260008FEE7704770B5044600F0FAF81B
:1002E0000546601C02D004480078044400F0F2F88F
:1002F000401BA042FAD370BD340000202DE9F84F16
:10030000DFF880B100224FF003094FF00F0A0BF124
:10031000040E01250B6895402B40AB4272D14C680E
:10032000012C05D0022C03D0112C01D0122C10D19D
:100330008668540009FA04F7BE43CF68A7403743E4
:10034000876046680C79AE43C4F30014944034438C
:100350004460C468570009FA07F58E68AC43BE4094
:100360002643C6604C68022C01D0122C12D1D4084E
:1003700000EB840CDCF820605407E40E0AFA04F861
:1003800026EA0806D1F8108008FA04F848EA0608B8
:10039000CCF820800468AC430D7905F00305BD401E
:1003A000254305604C68E40065D5374C256845F465
:1003B00080452560246822F0030504F480440094FD
:1003C000324C2E19D6F808789407250F0AFA05F44E
:1003D000A7432F4CA04201D1002424E02D4CA04281
:1003E00001D101241FE02C4CA04201D102241AE0CB
:1003F0002A4CA04201D1032415E0294CA04202D18D
:10040000042410E037E0274CA04201D105240AE083
:10041000254CA04201D1062405E0244CA04201D184
:10042000072400E00824AC403C43C6F80848DBF849
:1004300000405D464E689C43F60300D51C432C608B
:10044000DEF8004075464E689C43B60300D51C4359
:100450002C600C4D08352C684E689C43F60200D584
:100460001C432C60074D0C352C684E689C43B6022B
:1004700000D51C432C60521C102AFFF44AAFBDE883
:10048000F88F0000003C0140443802400030014039
:10049000000002400004024000080240000C02403C
:1004A000001002400014024000180240001C0240EC
:1004B0000069084000D001207047426931EA020219
:1004C00000D10904816170470AB181617047090454
:1004D000FBE70000014880687047000034000020FE
:1004E00070B5040025D094F83D00002520B984F8AB
:1004F0003C50204600F050F9242084F83D0020684C
:10050000016821F0010101602068016841F40041A7
:1005100001602068016821F40041016000F098FA50
:100520004D4B6168994201D84C4900E04C498842E2
:1005300001D2012070BD4B492268B0FBF1F1566831
:1005400026F03F060E43566062689A4206D94FF481
:10055000967251434FF47A72B1FBF2F12268491C52
:10056000166A26F03F06314311626168994210D83D
:100570004900401EB0FBF1F2521CC2F30B02042AE8
:1005800001D2042022E0B0FBF1F0401CC0F30B00CC
:100590001CE0A268F2B301EBC10303EB0116431E9A
:1005A000B3FBF6F35B1C43F480431B0549D092B3C5
:1005B00001EBC10202EB0111401EB0FBF1F0401C47
:1005C000C0F30B0040F4804040F400402168CA6949
:1005D0004CF6FF739A431043C861D4E907100143F6
:1005E0002068026822F0C00211430160D4E90301CF
:1005F00001432068826848F2FF339A4311438160C7
:10060000D4E9051001432068C26822F0FF021143BB
:10061000C16001E00EE016E02068016841F00101D0
:1006200001602564202084F83D00256384F83E5055
:10063000002070BD01EB4106431EB3FBF6F35B1CCB
:10064000B3E70120C2E701EB4101401EB0FBF1F02E
:10065000401CC0F30B00B7E7A086010080841E0099
:1006600000093D0040420F002DE9FF4F83B09A463C
:10067000DDE9119793460446DDF84080FFF72AFF35
:10068000054694F83D0020287FD1192301224049D6
:100690002046009500F068FC002876D194F83C00D4
:1006A000012872D0012084F83C0020680168C90745
:1006B00003D1016841F0010101602068016821F463
:1006C00000610160212084F83D00402084F83E0054
:1006D00000262664C4F82480A4F82A90608D208522
:1006E0002C48E062CDE9007553465A4620460499ED
:1006F00000F0C0FB70B930E02A463946204600F0D1
:10070000B3FC58B1206C042804D12068016841F47E
:1007100000710160012007B0BDE8F08F606A2168B8
:1007200000780861626A521C6262208D401E80B2AD
:100730002085618D491E618521684B69DB435B071C
:100740000BD468B110780861606A401C6062208D2B
:10075000401E2085608D401E6085208D0028CBD1F5
:100760002A463946204600F0D9FB0028CAD154F861
:100770003D0B016841F400710160202004F81E095E
:10078000E67766770020C6E7FFE70220C3E70000B0
:10079000020010000000FFFF10B586B004461421CF
:1007A0006846FFF75AFD13492068884220D1124855
:1007B000016841F0020101600068694600F0020032
:1007C0000590C0200090122001900120029003208B
:1007D0000390042004900948FFF790FD064810306C
:1007E000016841F400110160006800F400100590F8
:1007F00006B010BD005400403038024000040240F2
:1008000002488168027811448160704734000020FA
:100810000B4810B5016841F400710160016841F4B2
:1008200080610160016841F480710160032000F083
:1008300063F8002000F006F800F024F8002010BD56
:10084000003C024070B50D4D04464FF47A71287893
:10085000B1FBF0F00A490968B1FBF0F000F0DEFAF4
:1008600048B9102C07D200222146501E00F024F86F
:1008700000206C6070BD012070BD000034000020BD
:10088000400000200B4882B0016841F480410160C3
:10089000006800F4804000900648001F016841F0A5
:1008A00080510160006800F080500090072002B085
:1008B00000F022B844380240F0B40E4B1B68C3F37A
:1008C0000223C3F10704042C00D904241D1D072DA5
:1008D00001D2002300E0DB1E012606FA04F56D1E9E
:1008E0000D409D409E40761E164045EA0601F0BC34
:1008F00000F093BC0CED00E0064A00F00701106820
:100900004FF6FF03184040EA0120034908431060F6
:10091000704700000CED00E00000FA052DE9F047FB
:100920000D46040065D0DFF81491D9F80000EFB24D
:1009300000F00F00A84207D289F80070D9F8000033
:1009400000F00F00A84254D120683D4E810712D517
:10095000400703D5306840F4E0503060207800074D
:1009600003D5306840F4604030603068A16820F002
:10097000F000084330602078C0072DD0304960680F
:100980000839012812D0022813D0032811D0096891
:10099000890700292DDA316821F003010143316014
:1009A000FFF798FD804641F2883A0EE00968890316
:1009B000EFE709688901ECE7FFF78CFDA0EB080180
:1009C000514502D90320BDE8F0873068616800F026
:1009D0000C00B0EB810FEFD1D9F80010484601F0C0
:1009E0000F01A94207D90770006800F00F00A84264
:1009F00001D00120E7E72078400705D53068E1689D
:100A000020F4E050084330602078000706D53068B5
:100A1000216920F4604040EAC100306000F028F80D
:100A20003168084AC1F30311515CC84006490860A7
:100A300006480068FFF706FF0020C4E7003C0240BC
:100A400008380240B026000840000020380000208E
:100A50000448054900680968044AC1F38221515CD1
:100A6000C84070474000002008380240C0260008F7
:100A7000154810B5006810F00C01144813D043104D
:100A800004290FD008290ED10F4C241F216801F032
:100A90003F022168490207D52068C0F38810A0FBF7
:100AA000030106E0184610BD2168C1F38811A1FBBF
:100AB00000010023FFF786FB2168C1F30141491CB7
:100AC0004900B0FBF1F010BD083802400024F400EA
:100AD0002DE9F84F040075D02078DFF828B3CA4D0F
:100AE000C00748D0DBF800105846C1F38101012946
:100AF00008D00068C0F3810002280AD1281D0068D0
:100B0000400206D52868800335D560680028E2D009
:100B100031E06068B0F5803F10D0B0F5A02F2868B4
:100B200010D020F480302860286820F480202860CD
:100B30006068A0B1FFF7CEFC06460CE0286840F4E0
:100B40008030F4E740F480202860F7E7FFF7C2FC2C
:100B5000801B642872D828688003F7D50BE0FFF764
:100B6000B9FC064604E0FFF7B5FC801B6428F1D809
:100B700028688003F7D42078DFF8909280074FF040
:100B8000000A3ED5DBF80010584611F00C0F09D0D2
:100B90000068C0F3810002280BD19A48001F00684A
:100BA000400206D42868800715D5E068012809D1DD
:100BB00011E0E068B8B10120C9F80000FFF78AFC35
:100BC000064605E01AE1FFF785FC801B0228C1D824
:100BD00028688007F7D52868216920F0F80040EAE6
:100BE000C10028600DE0C9F800A0FFF773FC0646BD
:100BF00004E0FFF76FFC801B02281FD828688007DD
:100C0000F7D42078000722D57E4F814861696C3780
:100C100071B101210160FFF75DFC064604E0FFF7BA
:100C200059FC801B022809D838688007F7D50EE0E8
:100C3000C0F800A0FFF74EFC064605E082E0FFF793
:100C400049FC801B02287DD838688007F7D42078BB
:100C5000400765D56B484FF0000838300068C00089
:100C60000BD468483830016841F080510160006859
:100C70004FF0010800F080500090664F3868C005C2
:100C80000FD4386840F480703860FFF723FC0646C4
:100C900004E0FFF71FFC801B022853D83868C0050A
:100CA000F7D5584FA068683701280FD00528386855
:100CB00010D020F001003860386820F0040038605F
:100CC000A068B0B1FFF706FC06460EE0386840F0B9
:100CD0000100F4E740F004003860F7E7FFF7FAFBA3
:100CE000811B41F28830814264D838688007F5D58D
:100CF0000DE0FFF7EFFB064606E0FFF7EBFB811B7D
:100D000041F28830814255D838688007F5D4B8F16F
:100D1000000F05D03B483830016821F08051016058
:100D2000A069C0B3DBF800205946C2F38102022A51
:100D300047D00228504606D0C9F86000FFF7CAFB2A
:100D400004463AE036E04F46C9F86000FFF7C2FBC0
:100D5000064604E0FFF7BEFB801B02282AD828685D
:100D60008001F7D4D4E907010843A16A2A4A490857
:100D700002EB0141626A41EA8211084394F82C10A7
:100D800040EA01611F48001F016001203866FFF73B
:100D9000A1FB044605E033E0FFF79CFB001B0228A3
:100DA00008D828688001F7D52AE0FFF793FB001BDD
:100DB000022802D90320BDE8F88F28688001F4D406
:100DC0001EE00128F7D00868E26900F48001914232
:100DD00014D1226A00F03F0191420FD147F6C07151
:100DE000626A0140914209D1A26A00F44031914205
:100DF00004D1E16A00F07060884201D00120DAE796
:100E00000020D8E70838024000380240000047427E
:100E1000800E4742007000400000FFFF10B5401EEA
:100E2000B0F1807F01D3012010BD4FF0E02460615C
:100E30000F21601700F0F1F90020A0610720206168
:100E4000002010BDFEE701684A69D24352050FD465
:100E50006FF480624A61002140F8301F2022427303
:100E60008173026942F0040202610173012070473C
:100E7000002070472DE9F843044600680D46DDE97F
:100E8000089701689846164641F4807101604B4608
:100E900000224FF001112046009700F065F848B19C
:100EA00020680068C00502D54FF40070206403205C
:100EB000BDE8F883216805F0FE0008613B464A461C
:100EC0001549204600F084F888B920684169806996
:100ED00000903A464946204600F0C6F848B1206CDA
:100EE000042804D12068016841F4007101600120E8
:100EF000DEE7F5B2B8F1010F09D02168300A0861C8
:100F00003A464946204600F0AFF80028E7D120686D
:100F100005610020CCE700000200010070B5164614
:100F20000D4604460DE02046FFF78DFF08B1012075
:100F300070BD681C05D0FFF7CDFA801BA84207D80A
:100F400035B120684069C0434007ECD4002070BD33
:100F5000002044F8300F20216173A073216941F013
:100F6000200121612073E2E72DE9F0471D469046FC
:100F70000E460446C1F30747DDF8209008E0681CE0
:100F800006D0FFF7A7FAA0EB0900A8420FD875B169
:100F90002068012F18D0806926EA00000004000CA8
:100FA00014D000204045EAD00020BDE8F0870020A2
:100FB00044F8300F20216173A073216941F02001B2
:100FC000216120730120F0E74069E5E70120E9E7AE
:100FD0002DE9F047984615460E4604464FF00009A5
:100FE0004FF0200AC1F3074723E020684069C0435F
:100FF000400515D42068016841F400710160216842
:101000006FF480604861C4F8309084F83DA084F8A3
:101010003E90216C41F00401216484F83C901EE074
:10102000681C06D0FFF756FAA0EB0800A8420AD8C1
:101030004DB12068012F15D0806926EA0000000418
:10104000000C0DD0D1E744F8309F84F80DA084F84F
:101050000E90216941F02001216184F80C9001205B
:10106000BDE8F0874069E8E770B516460D460446CE
:101070000DE02046FFF7E7FE08B1012070BD681CB7
:1010800005D0FFF727FA801BA84207D835B12068A2
:101090004069C0430006ECD4002070BD002044F835
:1010A000300F20216173A073216941F0200121617B
:1010B0002073E2E72DE9F04186B014216846FFF77E
:1010C000CCF81F480024016841F00101016001686B
:1010D00001F001010591016841F00801016001681A
:1010E00001F008010591016841F00201016000680A
:1010F000DFF8508000F002004FF4704605900022A7
:1011000031464046FFF7E0F90125CDE900540E4F86
:10111000694638460294FFF7F1F81E208DE8310049
:1011200069463846FFF7EAF80096CDE9015469466A
:1011300040460394FFF7E2F806B0BDE8F0810000F6
:1011400030380240000C024000000240FEE77047C9
:10115000704730B500250024E1B2E8B2002200F06B
:101160004BFA641C402CF7DB6D1C802DF3DB30BD8B
:101170007047FFF745BB000030B593B0302168469B
:10118000FFF76BF814210CA8FFF767F81948002542
:10119000016841F080510160006800F080501190BA
:1011A0001548016841F4804101600068022400F4A0
:1011B0008040119001200390102004900094069428
:1011C0000820CDE90750A820CDE9090407200B909D
:1011D0006846FFF77DFC0CA90F2081E831004FF431
:1011E000A0500F90E002109005210CA8FFF796FB8D
:1011F00013B030BD4038024000700040054801681F
:1012000041F47001016003494FF0006080390860CB
:101210007047000088ED00E0FEE70907090E00288E
:1012200004DB00F1E02080F80014704700F00F00AC
:1012300000F1E02080F8141D704702E008C8121F7A
:1012400008C1002AFAD170477047002001E001C1AF
:10125000121F002AFBD1704710B5124C20681028CD
:1012600003D300F093F800F085F96068082803D3F1
:1012700000F08CF800F07EF90A482168083802680E
:1012800040681144084A02EB41116268104451F869
:101290002000022805D100F079F8BDE8104000F0E8
:1012A00069B910BD2C000020480400201048A0F1AE
:1012B000080201681368406819440E4B526803EB3A
:1012C0004113024453F8220001280FD1084B1C3B64
:1012D0001869401C18615868401C5860064B03EBA5
:1012E000800040F8041CC26400F066B9704700003A
:1012F0002C00002048040020480600202DE9F04181
:10130000C500CE0005F1080806F108070AE03446DA
:1013100005E0E1B2E8B2002200F06EF9641CBC42C4
:10132000F7DB6D1C4545F2DBBDE8F0812DE9F041AE
:10133000C500CE0005F1080806F108070AE03446AA
:1013400005E0E1B2E8B2012200F056F9641CBC42AB
:10135000F7DB6D1C4545F2DBBDE8F0812DE9F0417E
:10136000C500CE0005F1080806F108070AE034467A
:1013700005E0E1B2E8B2012200F03EF9641CBC4293
:10138000F7DB6D1C4545F2DBBDE8F08110B5FFF7DA
:10139000E0FE1421102000F0C7F9134C012313A024
:1013A000D4E9001200F048FA2821102000F0BCF91E
:1013B000D4E90012012310A000F03EFA28215020A9
:1013C00000F0B2F90E48D4E90012007C012330305D
:1013D000C0B200F0D3F900F0ADF9BDE810404FF411
:1013E0007A70FEF779BF00000000002047616D654C
:1013F000204F76657200000053636F72653A2000DB
:101400001000002010B50021064C0A46002004EB15
:10141000411343F82020401C0828FADB491C1029FE
:10142000F4DB10BD48040020FFF7F2F9FFF7A4FE3B
:10143000FFF740FE20481F49002401601F49C0E912
:1014400001144FF48041C0E9034144618461C461E7
:101450000462FFF745F800F0FFF8FFF7D3FF1848E4
:10146000022200F50071026002620C600C6501202E
:101470004C65486013494A6001F11402C2E9000456
:10148000087048708870C8700C6100F095F84FF4CF
:1014900080540D4D00F0E6F9FFF708FF00F016F854
:1014A000FFF7DAFE21462846FFF707F800F002FAB8
:1014B000F0E7000000540040E8060020801A060013
:1014C0004804002010000020000C0240F0B5224922
:1014D000224E4A68A6F5007C501E0BD4002306EB72
:1014E000800556F820402D6D0CEB4414401E44F846
:1014F0002530F4D506EB8200174D50F8043D8B6083
:10150000046D1435CC602F683B4403606D682C4437
:10151000046511481C30C0E90034901E0DD406EB60
:10152000800356F820401D6D8F6846F82070CF6804
:101530001F65401EC1E90245F1D5521E0BD40220A1
:1015400006EB820356F822101B6D0CEB4111521E64
:1015500041F82300F4D5F0BD10000020480600201B
:1015600010B50446FEF760FE641C90FBF4F104FB2A
:10157000110010BD10B5FFF745FF0D4802230022F2
:10158000036000F5007103620A600A6501204A6584
:10159000486008494B6001F11403C3E90002087078
:1015A00048708870C8700A61BDE8104000F004B847
:1015B000480400201000002070B50F20FFF7D0FF76
:1015C00005460720FFF7CCFF0A4C06E00F20FFF787
:1015D000C7FF05460720FFF7C3FF04EB451151F88D
:1015E00020100229F2D004EB4512012142F820100C
:1015F00070BD00004804002030B5802813D2402977
:1016000011D20B4B1B790BB172B10022012301F0F7
:101610000704A340074DC90800EBC110012A295C4B
:1016200004D09943295430BD0122EFE71943F9E76B
:10163000080000204800002010B5064B00214FF4A0
:10164000806428B1FF225A54491CA142F9D310BD2D
:101650000022F8E74800002010B56420FEF73CFEA9
:10166000AE2000F0D7F8202000F0D4F8102000F0D1
:10167000D1F8B02000F0CEF8C82000F0CBF8002060
:1016800000F0C8F8102000F0C5F8402000F0C2F8C3
:10169000812000F0BFF8FF2000F0BCF8A12000F08E
:1016A000B9F8A62000F0B6F8A82000F0B3F83F2063
:1016B00000F0B0F8A42000F0ADF8D32000F0AAF8B4
:1016C000002000F0A7F8D52000F0A4F8F02000F0EA
:1016D000A1F8D92000F09EF8222000F09BF8DA2033
:1016E00000F098F8122000F095F8DB2000F092F856
:1016F000202000F08FF88D2000F08CF8142000F0EE
:1017000089F8AF2000F086F80020FFF795FF00F081
:1017100011F80448002101804180012141710846EF
:1017200010BD000008000020014A10805180704761
:1017300008000020FEB5002464250E4F802604F129
:10174000B000C0B200F066F8002000F063F810208E
:1017500000F060F807EBC410CDE900060123402239
:10176000782102950448FEF77FFF641CE4B2082C40
:10177000E5D3FEBD48000020E80600202DE9FF4F1C
:1017800023489346CFB202889A463A44802A06D22A
:1017900081464088C1F307263044402803D3002007
:1017A00004B0BDE8F08F002527E00098203810FB3A
:1017B00006503BF8108000241CE008FA04F00004F6
:1017C00009D599F8021099F8000029442044C9B2BB
:1017D000C0B252460BE0BAF1000F17D0002299F8C0
:1017E000021099F8000029442044C9B2C0B2FFF7A2
:1017F00003FF641CA742E0D86D1CAE42D5D8B9F8EF
:1018000000103944A9F800100098C9E70122E6E762
:101810000800002001B584B001210A2204A88DE847
:1018200007000B46002278210248FEF71DFF05B095
:1018300000BD0000E8060020F0B51D460E46174624
:1018400004460AE02B463A463146FFF797FF2178D7
:10185000884201D0C8B2F0BD641C20780028F1D1C4
:10186000C0B2F0BD2DE9F041FFF773FC104F002529
:10187000002407EB451656F8240002280FD0012853
:101880002146284610D0FFF739FD641C082CF2DBF6
:101890006D1C102DECDBBDE8F041FFF74BBF21467E
:1018A0002846FFF75BFDF0E7FFF740FDEDE700009E
:1018B000480400202DE9F047254E0024234FA04680
:1018C0004FF001094FF0FF3A06F1140502213846A6
:1018D000FEF7EEFD00B10120707008B9686840B1F4
:1018E00010213846FEF7E4FD00B10120307020B130
:1018F00005E0C5E90089BDE8F087686840B10421CA
:101900003846FEF7D5FD00B10120B07018B104E0F3
:10191000C5E9008AEFE7286840B108213846FEF79C
:10192000C7FD00B10120F07018B104E0C5E90098CE
:10193000E1E7286830B10520FEF7CEFC641C2D2CB1
:10194000C4DBD8E7C5E900A8D5E7000000000240E5
:101950001000002000000000000000000000000057
:101960000000000000000000000000000000000077
:1019700000000000000000000000000C000C000C43
:10198000000C000C000C000C000C000C000C000CF7
:101990000000000C000C0000000000000000001B14
:1019A000001B001B001B001B0000000000000000CB
:1019B0000000000000000000000000000000000027
:1019C00000008019801980198019C07FC07F80199C
:1019D0000033C07FC07F003300330033003300008A
:1019E000000000000000001E003F8075806500744C
:1019F000003C001E00078005806580658075003F03
:101A0000001E0004000400000000007000D840D850
:101A1000C0D880D900730006000C801BC036C06699
:101A2000C046C00680030000000000000000001E49
:101A3000003F003300330033001E000CC03CC06682
:101A4000806380618063C03E801C00000000000055
:101A50000000000C000C000C000C000C000000004A
:101A60000000000000000000000000000000000076
:101A700000000000800000010003000600060004D2
:101A8000000C000C000C000C000C000C0004000604
:101A90000006000300018000002000100018000C68
:101AA000000C000400060006000600060006000602
:101AB0000004000C000C0018001000200000000CB6
:101AC000002D003F001E0033000000000000000059
:101AD0000000000000000000000000000000000006
:101AE000000000000000000C000C000C000CC0FF07
:101AF000C0FF000C000C000C000C000000000000F7
:101B000000000000000000000000000000000000D5
:101B10000000000000000000000000000000000CB9
:101B2000000C000400040008000000000000000099
:101B300000000000000000000000001E001E000069
:101B40000000000000000000000000000000000095
:101B50000000000000000000000000000000000085
:101B6000000000000000000C000C0000000000005D
:101B70000000000300030003000600060006000644
:101B8000000C000C000C000C0018001800180000DD
:101B9000000000000000001E003F003380618061F3
:101BA0008061806D806D8061806180610033003F65
:101BB000001E00000000000000000006000E001ED5
:101BC0000036002600060006000600060006000695
:101BD0000006000600060000000000000000001ED5
:101BE000003F807380618061800100030006000C6B
:101BF000001800300060807F807F0000000000003F
:101C00000000001C003E006300630003000E000E95
:101C100000038001800180618073003F001E00008E
:101C20000000000000000006000E000E001E001E56
:101C30000016003600360066807F807F00060006B2
:101C400000060000000000000000007F007F006030
:101C500000600060006E007F806380018001806111
:101C60008073003F001E0000000000000000001E06
:101C7000003F803380610060006E007F8073806170
:101C8000806180618033003F001E00000000000082
:101C90000000807F807F80010003000300060006B3
:101CA000000C000C000C00080018001800180000C0
:101CB000000000000000001E003F80638061806122
:101CC0000021001E003F8061806180618061003FD3
:101CD000001E0000000000000000001E003F007316
:101CE0008061806180618073803F801D80018061A0
:101CF0000073003F001E0000000000000000000014
:101D0000000000000000000C000C000000000000BB
:101D1000000000000000000C000C000000000000AB
:101D2000000000000000000000000000000C000C9B
:101D300000000000000000000000000C000C000487
:101D40000004000800000000000000008000800384
:101D5000000E003800600038000E80038000000094
:101D60000000000000000000000000000000000073
:101D70000000807F807F00000000807F807F000067
:101D80000000000000000000000000000000000053
:101D90000000000000400070001C000780010007E8
:101DA000001C007000400000000000000000000067
:101DB0000000001F803FC071C060C000C0018003F0
:101DC0000007000E000C000C0000000C000C0000CE
:101DD000000000000000001E003F80318071806321
:101DE000806F806D806D806F806700600032003E84
:101DF000001C0000000000000000000E000E001B90
:101E0000001B001B001B80318031803F803F8031F0
:101E1000C060C060C0600000000000000000007CE6
:101E2000007E0063006300630063007E007E006349
:101E3000806180618063007F007E00000000000000
:101E40000000001E003F8031806100600060006083
:101E500000600060006080618031003F001E000073
:101E6000000000000000007C007F00638063806150
:101E70008061806180618061806100630063007EB9
:101E8000007C0000000000000000807F807F006078
:101E9000006000600060007F007F00600060006004
:101EA0000060807F807F0000000000000000807FD5
:101EB000807F0060006000600060007F007F006045
:101EC0000060006000600060006000000000000032
:101ED0000000001E003F80318061006000600060F3
:101EE00080638063806180618031803F001E0000DC
:101EF000000000000000806180618061806180617D
:101F00008061807F807F806180618061806180618D
:101F100080610000000000000000003F003F000C56
:101F2000000C000C000C000C000C000C000C000C51
:101F3000000C003F003F0000000000000000800196
:101F40008001800180018001800180018001800189
:101F5000806180618073003F001E0000000000006F
:101F60000000C0608061006300660066006C00785D
:101F7000007C00660066006380618061C0600000D4
:101F80000000000000000060006000600060006071
:101F90000060006000600060006000600060807FA2
:101FA000807F0000000000000000C071C071C07B95
:101FB000C07AC06AC06AC06EC064C060C060C060E1
:101FC000C060C060C06000000000000000008071C0
:101FD0008071807980798079806D806D806D806579
:101FE0008067806780678063806300000000000076
:101FF0000000001E003F00338061806180618061CD
:1020000080618061806180610033003F001E0000BC
:10201000000000000000007E007F8063806180611E
:1020200080618063007F007E00600060006000606F
:1020300000600000000000000000001E003F0033B0
:10204000806180618061806180618061806580677E
:102050000033803F401E0000000000000000007EB2
:10206000007F8063806180618063007F007E006606
:102070000063006380618061C060000000000000B8
:102080000000000E001F8031803100300038001E3B
:1020900000078003806180618031003F001E0000E6
:1020A000000000000000C0FFC0FF000C000C000C8E
:1020B000000C000C000C000C000C000C000C000CC0
:1020C000000C000000000000000080618061806161
:1020D00080618061806180618061806180618061F8
:1020E0008073003F001E0000000000000000C06080
:1020F000C060C060803180318031001B001B001B3C
:10210000001B000E000E000E000400000000000086
:102110000000C0C0C0C0C0C0C0C0C0C0C0CC804CE7
:10212000804C805E805280528073806180610000AC
:10213000000000000000C0C0806080610033003BF0
:10214000001E000C000C001E001F003B807180610F
:10215000C0C00000000000000000C0C080618061BD
:1021600000330033001E001E000C000C000C000C9D
:10217000000C000C000C0000000000000000803F7C
:10218000803F8001000300030006000C000C0018D3
:10219000001800300060807F807F00000000000099
:1021A000000F000F000C000C000C000C000C000CC9
:1021B000000C000C000C000C000C000C000C000CBF
:1021C000000F000F0000001800180018000C000C91
:1021D000000C000C000600060006000600030003C9
:1021E0000003000000000000001E001E00060006A4
:1021F00000060006000600060006000600060006AF
:102200000006000600060006001E001E0000000C6E
:10221000000C001E0012003300338061806100005A
:1022200000000000000000000000000000000000AE
:10223000000000000000000000000000000000009E
:10224000000000000000000000000000000000008E
:10225000E0FF0000000000380018000C0000000043
:10226000000000000000000000000000000000006E
:10227000000000000000000000000000000000005E
:102280000000001F803F80618001801F803F8061CF
:102290008063807FC0380000000000000000006004
:1022A000006000600060006E007F8073806180616C
:1022B000806180618073007F006E0000000000007C
:1022C00000000000000000000000001E003F8073BE
:1022D00080610060006080618073003F001E00002C
:1022E0000000000000008001800180018001801D4D
:1022F000803F807380618061806180618073803FF6
:10230000801D000000000000000000000000000030
:102310000000001E003F00738061807F807F0060AE
:102320008071003F001E0000000000000000C00798
:10233000C00F000C000C807F807F000C000C000C94
:10234000000C000C000C000C000C00000000000051
:102350000000000000000000801D803F807380614D
:102360008061806180618073803F801D8001806317
:10237000007F003E00000060006000600060006FB1
:10238000807F807180618061806180618061806117
:102390008061000000000000000000060006000050
:1023A0000000003E003E0006000600060006000693
:1023B00000060006000600000000000000060006FF
:1023C00000000000003E003E000600060006000679
:1023D000000600060006000600060046007E003CDF
:1023E00000000060006000600060806100630066C3
:1023F000006C007C0076006300638061C0600000B8
:10240000000000000000003E003E0006000600063E
:10241000000600060006000600060006000600068C
:1024200000060000000000000000000000000000A6
:10243000000080DDC0FFC0CEC0CCC0CCC0CCC0CCC2
:10244000C0CCC0CCC0CC00000000000000000000E8
:10245000000000000000006F807F8071806180615B
:102460008061806180618061806100000000000007
:1024700000000000000000000000001E003F80730C
:1024800080618061806180618073003F001E000078
:10249000000000000000000000000000006E007F4F
:1024A000807380618061806180618073007F006ED5
:1024B000006000600060006000000000000000009C
:1024C000801D803F80738061806180618061807346
:1024D000803F801D8001800180018001000000009C
:1024E0000000000000000067803F0039003000302D
:1024F00000300030003000300030000000000000EC
:1025000000000000000000000000001E803F80610D
:102510000060007F803F80018061007F001E00001E
:102520000000000000000000000800180018007FF4
:10253000007F001800180018001800180018801FED
:10254000800F0000000000000000000000000000FC
:102550000000806180618061806180618061806154
:102560008063807F803D00000000000000000000CC
:10257000000000000000C060803180318031001B0D
:10258000001B001B000E000E0006000000000000F3
:102590000000000000000000000080DD80DD80DD24
:1025A00000550055005500770077002200220000FA
:1025B000000000000000000000000000000080613A
:1025C00000330033001E000C000C001E00330033EB
:1025D000806100000000000000000000000000001A
:1025E00080618061803100330033001B001B001BC1
:1025F000000E000E000E001C007C007000000000A9
:10260000000000000000C07FC07F800100030006C2
:10261000000C00180030C07FC07F000000000000E8
:102620008003800700060006000600060006000E74
:10263000001C001C000E0006000600060006000636
:10264000800780030006000600060006000600065C
:10265000000600060006000600060006000600064A
:1026600000060006000600060038003C000C000CC6
:10267000000C000C000C000E00070007000E000C00
:10268000000C000C000C000C003C003800000000A6
:10269000000000000000000000008038807F00473C
:1026A000000000000000000000000000000000002A
:1026B00000000000000000000102030406070809F2
:1026C0000000000001020304E826000800000020CA
:1026D000480000003A120008302700084800002097
:1026E000F80A00004A1200080B12000054190008F2
:1026F00000000000000000000000000002000000D8
:1027000000000000000000000000000001000000C8
:1027100000000000000000000000000001000000B8
:1027200010000000000000000024F4000000000081
:040000050800018965
:00000001FF
